{
  "_format": "hh-sol-artifact-1",
  "contractName": "Dappcord",
  "sourceName": "contracts/Dappcord.sol",
  "abi": [
    {
      "inputs": [
        {
          "internalType": "string",
          "name": "_name",
          "type": "string"
        },
        {
          "internalType": "string",
          "name": "_symbol",
          "type": "string"
        }
      ],
      "stateMutability": "nonpayable",
      "type": "constructor"
    },
    {
      "anonymous": false,
      "inputs": [
        {
          "indexed": true,
          "internalType": "address",
          "name": "owner",
          "type": "address"
        },
        {
          "indexed": true,
          "internalType": "address",
          "name": "approved",
          "type": "address"
        },
        {
          "indexed": true,
          "internalType": "uint256",
          "name": "tokenId",
          "type": "uint256"
        }
      ],
      "name": "Approval",
      "type": "event"
    },
    {
      "anonymous": false,
      "inputs": [
        {
          "indexed": true,
          "internalType": "address",
          "name": "owner",
          "type": "address"
        },
        {
          "indexed": true,
          "internalType": "address",
          "name": "operator",
          "type": "address"
        },
        {
          "indexed": false,
          "internalType": "bool",
          "name": "approved",
          "type": "bool"
        }
      ],
      "name": "ApprovalForAll",
      "type": "event"
    },
    {
      "anonymous": false,
      "inputs": [
        {
          "indexed": true,
          "internalType": "address",
          "name": "from",
          "type": "address"
        },
        {
          "indexed": true,
          "internalType": "address",
          "name": "to",
          "type": "address"
        },
        {
          "indexed": true,
          "internalType": "uint256",
          "name": "tokenId",
          "type": "uint256"
        }
      ],
      "name": "Transfer",
      "type": "event"
    },
    {
      "inputs": [
        {
          "internalType": "address",
          "name": "to",
          "type": "address"
        },
        {
          "internalType": "uint256",
          "name": "tokenId",
          "type": "uint256"
        }
      ],
      "name": "approve",
      "outputs": [],
      "stateMutability": "nonpayable",
      "type": "function"
    },
    {
      "inputs": [
        {
          "internalType": "address",
          "name": "owner",
          "type": "address"
        }
      ],
      "name": "balanceOf",
      "outputs": [
        {
          "internalType": "uint256",
          "name": "",
          "type": "uint256"
        }
      ],
      "stateMutability": "view",
      "type": "function"
    },
    {
      "inputs": [
        {
          "internalType": "uint256",
          "name": "",
          "type": "uint256"
        }
      ],
      "name": "channels",
      "outputs": [
        {
          "internalType": "string",
          "name": "name",
          "type": "string"
        },
        {
          "internalType": "uint256",
          "name": "cost",
          "type": "uint256"
        },
        {
          "internalType": "uint256",
          "name": "id",
          "type": "uint256"
        }
      ],
      "stateMutability": "view",
      "type": "function"
    },
    {
      "inputs": [
        {
          "internalType": "string",
          "name": "_name",
          "type": "string"
        },
        {
          "internalType": "uint256",
          "name": "_cost",
          "type": "uint256"
        }
      ],
      "name": "createChannel",
      "outputs": [],
      "stateMutability": "nonpayable",
      "type": "function"
    },
    {
      "inputs": [
        {
          "internalType": "uint256",
          "name": "tokenId",
          "type": "uint256"
        }
      ],
      "name": "getApproved",
      "outputs": [
        {
          "internalType": "address",
          "name": "",
          "type": "address"
        }
      ],
      "stateMutability": "view",
      "type": "function"
    },
    {
      "inputs": [
        {
          "internalType": "uint256",
          "name": "_id",
          "type": "uint256"
        }
      ],
      "name": "getChannel",
      "outputs": [
        {
          "components": [
            {
              "internalType": "string",
              "name": "name",
              "type": "string"
            },
            {
              "internalType": "uint256",
              "name": "cost",
              "type": "uint256"
            },
            {
              "internalType": "uint256",
              "name": "id",
              "type": "uint256"
            }
          ],
          "internalType": "struct Dappcord.Channel",
          "name": "",
          "type": "tuple"
        }
      ],
      "stateMutability": "view",
      "type": "function"
    },
    {
      "inputs": [
        {
          "internalType": "uint256",
          "name": "",
          "type": "uint256"
        },
        {
          "internalType": "address",
          "name": "",
          "type": "address"
        }
      ],
      "name": "hasJoined",
      "outputs": [
        {
          "internalType": "bool",
          "name": "",
          "type": "bool"
        }
      ],
      "stateMutability": "view",
      "type": "function"
    },
    {
      "inputs": [
        {
          "internalType": "address",
          "name": "owner",
          "type": "address"
        },
        {
          "internalType": "address",
          "name": "operator",
          "type": "address"
        }
      ],
      "name": "isApprovedForAll",
      "outputs": [
        {
          "internalType": "bool",
          "name": "",
          "type": "bool"
        }
      ],
      "stateMutability": "view",
      "type": "function"
    },
    {
      "inputs": [
        {
          "internalType": "uint256",
          "name": "_id",
          "type": "uint256"
        }
      ],
      "name": "mint",
      "outputs": [],
      "stateMutability": "payable",
      "type": "function"
    },
    {
      "inputs": [],
      "name": "name",
      "outputs": [
        {
          "internalType": "string",
          "name": "",
          "type": "string"
        }
      ],
      "stateMutability": "view",
      "type": "function"
    },
    {
      "inputs": [],
      "name": "owner",
      "outputs": [
        {
          "internalType": "address",
          "name": "",
          "type": "address"
        }
      ],
      "stateMutability": "view",
      "type": "function"
    },
    {
      "inputs": [
        {
          "internalType": "uint256",
          "name": "tokenId",
          "type": "uint256"
        }
      ],
      "name": "ownerOf",
      "outputs": [
        {
          "internalType": "address",
          "name": "",
          "type": "address"
        }
      ],
      "stateMutability": "view",
      "type": "function"
    },
    {
      "inputs": [
        {
          "internalType": "address",
          "name": "from",
          "type": "address"
        },
        {
          "internalType": "address",
          "name": "to",
          "type": "address"
        },
        {
          "internalType": "uint256",
          "name": "tokenId",
          "type": "uint256"
        }
      ],
      "name": "safeTransferFrom",
      "outputs": [],
      "stateMutability": "nonpayable",
      "type": "function"
    },
    {
      "inputs": [
        {
          "internalType": "address",
          "name": "from",
          "type": "address"
        },
        {
          "internalType": "address",
          "name": "to",
          "type": "address"
        },
        {
          "internalType": "uint256",
          "name": "tokenId",
          "type": "uint256"
        },
        {
          "internalType": "bytes",
          "name": "data",
          "type": "bytes"
        }
      ],
      "name": "safeTransferFrom",
      "outputs": [],
      "stateMutability": "nonpayable",
      "type": "function"
    },
    {
      "inputs": [
        {
          "internalType": "address",
          "name": "operator",
          "type": "address"
        },
        {
          "internalType": "bool",
          "name": "approved",
          "type": "bool"
        }
      ],
      "name": "setApprovalForAll",
      "outputs": [],
      "stateMutability": "nonpayable",
      "type": "function"
    },
    {
      "inputs": [
        {
          "internalType": "bytes4",
          "name": "interfaceId",
          "type": "bytes4"
        }
      ],
      "name": "supportsInterface",
      "outputs": [
        {
          "internalType": "bool",
          "name": "",
          "type": "bool"
        }
      ],
      "stateMutability": "view",
      "type": "function"
    },
    {
      "inputs": [],
      "name": "symbol",
      "outputs": [
        {
          "internalType": "string",
          "name": "",
          "type": "string"
        }
      ],
      "stateMutability": "view",
      "type": "function"
    },
    {
      "inputs": [
        {
          "internalType": "uint256",
          "name": "tokenId",
          "type": "uint256"
        }
      ],
      "name": "tokenURI",
      "outputs": [
        {
          "internalType": "string",
          "name": "",
          "type": "string"
        }
      ],
      "stateMutability": "view",
      "type": "function"
    },
    {
      "inputs": [],
      "name": "totalChannels",
      "outputs": [
        {
          "internalType": "uint256",
          "name": "",
          "type": "uint256"
        }
      ],
      "stateMutability": "view",
      "type": "function"
    },
    {
      "inputs": [],
      "name": "totalSupply",
      "outputs": [
        {
          "internalType": "uint256",
          "name": "",
          "type": "uint256"
        }
      ],
      "stateMutability": "view",
      "type": "function"
    },
    {
      "inputs": [
        {
          "internalType": "address",
          "name": "from",
          "type": "address"
        },
        {
          "internalType": "address",
          "name": "to",
          "type": "address"
        },
        {
          "internalType": "uint256",
          "name": "tokenId",
          "type": "uint256"
        }
      ],
      "name": "transferFrom",
      "outputs": [],
      "stateMutability": "nonpayable",
      "type": "function"
    },
    {
      "inputs": [],
      "name": "withdraw",
      "outputs": [],
      "stateMutability": "nonpayable",
      "type": "function"
    }
  ],
  "bytecode": "0x60806040523480156200001157600080fd5b50604051620039aa380380620039aa83398181016040528101906200003791906200023b565b818181600090816200004a91906200050b565b5080600190816200005c91906200050b565b50505033600760006101000a81548173ffffffffffffffffffffffffffffffffffffffff021916908373ffffffffffffffffffffffffffffffffffffffff1602179055505050620005f2565b6000604051905090565b600080fd5b600080fd5b600080fd5b600080fd5b6000601f19601f8301169050919050565b7f4e487b7100000000000000000000000000000000000000000000000000000000600052604160045260246000fd5b6200011182620000c6565b810181811067ffffffffffffffff82111715620001335762000132620000d7565b5b80604052505050565b600062000148620000a8565b905062000156828262000106565b919050565b600067ffffffffffffffff821115620001795762000178620000d7565b5b6200018482620000c6565b9050602081019050919050565b60005b83811015620001b157808201518184015260208101905062000194565b60008484015250505050565b6000620001d4620001ce846200015b565b6200013c565b905082815260208101848484011115620001f357620001f2620000c1565b5b6200020084828562000191565b509392505050565b600082601f83011262000220576200021f620000bc565b5b815162000232848260208601620001bd565b91505092915050565b60008060408385031215620002555762000254620000b2565b5b600083015167ffffffffffffffff811115620002765762000275620000b7565b5b620002848582860162000208565b925050602083015167ffffffffffffffff811115620002a857620002a7620000b7565b5b620002b68582860162000208565b9150509250929050565b600081519050919050565b7f4e487b7100000000000000000000000000000000000000000000000000000000600052602260045260246000fd5b600060028204905060018216806200031357607f821691505b602082108103620003295762000328620002cb565b5b50919050565b60008190508160005260206000209050919050565b60006020601f8301049050919050565b600082821b905092915050565b600060088302620003937fffffffffffffffffffffffffffffffffffffffffffffffffffffffffffffffff8262000354565b6200039f868362000354565b95508019841693508086168417925050509392505050565b6000819050919050565b6000819050919050565b6000620003ec620003e6620003e084620003b7565b620003c1565b620003b7565b9050919050565b6000819050919050565b6200040883620003cb565b620004206200041782620003f3565b84845462000361565b825550505050565b600090565b6200043762000428565b62000444818484620003fd565b505050565b5b818110156200046c57620004606000826200042d565b6001810190506200044a565b5050565b601f821115620004bb5762000485816200032f565b620004908462000344565b81016020851015620004a0578190505b620004b8620004af8562000344565b83018262000449565b50505b505050565b600082821c905092915050565b6000620004e060001984600802620004c0565b1980831691505092915050565b6000620004fb8383620004cd565b9150826002028217905092915050565b6200051682620002c0565b67ffffffffffffffff811115620005325762000531620000d7565b5b6200053e8254620002fa565b6200054b82828562000470565b600060209050601f8311600181146200058357600084156200056e578287015190505b6200057a8582620004ed565b865550620005ea565b601f19841662000593866200032f565b60005b82811015620005bd5784890151825560018201915060208501945060208101905062000596565b86831015620005dd5784890151620005d9601f891682620004cd565b8355505b6001600288020188555050505b505050505050565b6133a880620006026000396000f3fe6080604052600436106101355760003560e01c806370a08231116100ab578063a14865cd1161006f578063a14865cd1461042d578063a22cb46514610456578063b88d4fde1461047f578063c87b56dd146104a8578063e5949b5d146104e5578063e985e9c51461052457610135565b806370a08231146103535780637734a9f6146103905780638da5cb5b146103bb57806395d89b41146103e6578063a0712d681461041157610135565b806318160ddd116100fd57806318160ddd1461024557806323b872dd146102705780633ccfd60b1461029957806342842e0e146102b05780636352211e146102d9578063681947191461031657610135565b806301ffc9a71461013a57806306fdde0314610177578063081812fc146101a2578063095ea7b3146101df57806310df54a014610208575b600080fd5b34801561014657600080fd5b50610161600480360381019061015c9190611fdf565b610561565b60405161016e9190612027565b60405180910390f35b34801561018357600080fd5b5061018c610643565b60405161019991906120d2565b60405180910390f35b3480156101ae57600080fd5b506101c960048036038101906101c4919061212a565b6106d5565b6040516101d69190612198565b60405180910390f35b3480156101eb57600080fd5b50610206600480360381019061020191906121df565b61071b565b005b34801561021457600080fd5b5061022f600480360381019061022a919061212a565b610832565b60405161023c91906122c8565b60405180910390f35b34801561025157600080fd5b5061025a610905565b60405161026791906122f9565b60405180910390f35b34801561027c57600080fd5b5061029760048036038101906102929190612314565b61090b565b005b3480156102a557600080fd5b506102ae61096b565b005b3480156102bc57600080fd5b506102d760048036038101906102d29190612314565b610a60565b005b3480156102e557600080fd5b5061030060048036038101906102fb919061212a565b610a80565b60405161030d9190612198565b60405180910390f35b34801561032257600080fd5b5061033d60048036038101906103389190612367565b610b06565b60405161034a9190612027565b60405180910390f35b34801561035f57600080fd5b5061037a600480360381019061037591906123a7565b610b35565b60405161038791906122f9565b60405180910390f35b34801561039c57600080fd5b506103a5610bec565b6040516103b291906122f9565b60405180910390f35b3480156103c757600080fd5b506103d0610bf2565b6040516103dd9190612198565b60405180910390f35b3480156103f257600080fd5b506103fb610c18565b60405161040891906120d2565b60405180910390f35b61042b6004803603810190610426919061212a565b610caa565b005b34801561043957600080fd5b50610454600480360381019061044f9190612509565b610e89565b005b34801561046257600080fd5b5061047d60048036038101906104789190612591565b610f5e565b005b34801561048b57600080fd5b506104a660048036038101906104a19190612672565b610f74565b005b3480156104b457600080fd5b506104cf60048036038101906104ca919061212a565b610fd6565b6040516104dc91906120d2565b60405180910390f35b3480156104f157600080fd5b5061050c6004803603810190610507919061212a565b61103e565b60405161051b939291906126f5565b60405180910390f35b34801561053057600080fd5b5061054b60048036038101906105469190612733565b6110f0565b6040516105589190612027565b60405180910390f35b60007f80ac58cd000000000000000000000000000000000000000000000000000000007bffffffffffffffffffffffffffffffffffffffffffffffffffffffff1916827bffffffffffffffffffffffffffffffffffffffffffffffffffffffff1916148061062c57507f5b5e139f000000000000000000000000000000000000000000000000000000007bffffffffffffffffffffffffffffffffffffffffffffffffffffffff1916827bffffffffffffffffffffffffffffffffffffffffffffffffffffffff1916145b8061063c575061063b82611184565b5b9050919050565b606060008054610652906127a2565b80601f016020809104026020016040519081016040528092919081815260200182805461067e906127a2565b80156106cb5780601f106106a0576101008083540402835291602001916106cb565b820191906000526020600020905b8154815290600101906020018083116106ae57829003601f168201915b5050505050905090565b60006106e0826111ee565b6004600083815260200190815260200160002060009054906101000a900473ffffffffffffffffffffffffffffffffffffffff169050919050565b600061072682610a80565b90508073ffffffffffffffffffffffffffffffffffffffff168373ffffffffffffffffffffffffffffffffffffffff1603610796576040517f08c379a000000000000000000000000000000000000000000000000000000000815260040161078d90612845565b60405180910390fd5b8073ffffffffffffffffffffffffffffffffffffffff166107b5611239565b73ffffffffffffffffffffffffffffffffffffffff1614806107e457506107e3816107de611239565b6110f0565b5b610823576040517f08c379a000000000000000000000000000000000000000000000000000000000815260040161081a906128d7565b60405180910390fd5b61082d8383611241565b505050565b61083a611f52565b60096000838152602001908152602001600020604051806060016040529081600082018054610868906127a2565b80601f0160208091040260200160405190810160405280929190818152602001828054610894906127a2565b80156108e15780601f106108b6576101008083540402835291602001916108e1565b820191906000526020600020905b8154815290600101906020018083116108c457829003601f168201915b50505050508152602001600182015481526020016002820154815250509050919050565b60085481565b61091c610916611239565b826112fa565b61095b576040517f08c379a000000000000000000000000000000000000000000000000000000000815260040161095290612969565b60405180910390fd5b61096683838361138f565b505050565b600760009054906101000a900473ffffffffffffffffffffffffffffffffffffffff1673ffffffffffffffffffffffffffffffffffffffff163373ffffffffffffffffffffffffffffffffffffffff16146109c557600080fd5b6000600760009054906101000a900473ffffffffffffffffffffffffffffffffffffffff1673ffffffffffffffffffffffffffffffffffffffff1647604051610a0d906129ba565b60006040518083038185875af1925050503d8060008114610a4a576040519150601f19603f3d011682016040523d82523d6000602084013e610a4f565b606091505b5050905080610a5d57600080fd5b50565b610a7b83838360405180602001604052806000815250610f74565b505050565b600080610a8c83611688565b9050600073ffffffffffffffffffffffffffffffffffffffff168173ffffffffffffffffffffffffffffffffffffffff1603610afd576040517f08c379a0000000000000000000000000000000000000000000000000000000008152600401610af490612a1b565b60405180910390fd5b80915050919050565b600a6020528160005260406000206020528060005260406000206000915091509054906101000a900460ff1681565b60008073ffffffffffffffffffffffffffffffffffffffff168273ffffffffffffffffffffffffffffffffffffffff1603610ba5576040517f08c379a0000000000000000000000000000000000000000000000000000000008152600401610b9c90612aad565b60405180910390fd5b600360008373ffffffffffffffffffffffffffffffffffffffff1673ffffffffffffffffffffffffffffffffffffffff168152602001908152602001600020549050919050565b60065481565b600760009054906101000a900473ffffffffffffffffffffffffffffffffffffffff1681565b606060018054610c27906127a2565b80601f0160208091040260200160405190810160405280929190818152602001828054610c53906127a2565b8015610ca05780601f10610c7557610100808354040283529160200191610ca0565b820191906000526020600020905b815481529060010190602001808311610c8357829003601f168201915b5050505050905090565b60008103610ced576040517f08c379a0000000000000000000000000000000000000000000000000000000008152600401610ce490612b19565b60405180910390fd5b600654811115610d32576040517f08c379a0000000000000000000000000000000000000000000000000000000008152600401610d2990612b85565b60405180910390fd5b6009600082815260200190815260200160002060010154341015610d8b576040517f08c379a0000000000000000000000000000000000000000000000000000000008152600401610d8290612bf1565b60405180910390fd5b60001515600a600083815260200190815260200160002060003373ffffffffffffffffffffffffffffffffffffffff1673ffffffffffffffffffffffffffffffffffffffff16815260200190815260200160002060009054906101000a900460ff16151514610df957600080fd5b6001600a600083815260200190815260200160002060003373ffffffffffffffffffffffffffffffffffffffff1673ffffffffffffffffffffffffffffffffffffffff16815260200190815260200160002060006101000a81548160ff02191690831515021790555060086000815480929190610e7590612c40565b9190505550610e86336008546116c5565b50565b600760009054906101000a900473ffffffffffffffffffffffffffffffffffffffff1673ffffffffffffffffffffffffffffffffffffffff163373ffffffffffffffffffffffffffffffffffffffff1614610ee357600080fd5b60066000815480929190610ef690612c40565b919050555060405180606001604052808381526020018281526020016006548152506009600060065481526020019081526020016000206000820151816000019081610f429190612e34565b5060208201518160010155604082015181600201559050505050565b610f70610f69611239565b83836116e3565b5050565b610f85610f7f611239565b836112fa565b610fc4576040517f08c379a0000000000000000000000000000000000000000000000000000000008152600401610fbb90612969565b60405180910390fd5b610fd08484848461184f565b50505050565b6060610fe1826111ee565b6000610feb6118ab565b9050600081511161100b5760405180602001604052806000815250611036565b80611015846118c2565b604051602001611026929190612f42565b6040516020818303038152906040525b915050919050565b6009602052806000526040600020600091509050806000018054611061906127a2565b80601f016020809104026020016040519081016040528092919081815260200182805461108d906127a2565b80156110da5780601f106110af576101008083540402835291602001916110da565b820191906000526020600020905b8154815290600101906020018083116110bd57829003601f168201915b5050505050908060010154908060020154905083565b6000600560008473ffffffffffffffffffffffffffffffffffffffff1673ffffffffffffffffffffffffffffffffffffffff16815260200190815260200160002060008373ffffffffffffffffffffffffffffffffffffffff1673ffffffffffffffffffffffffffffffffffffffff16815260200190815260200160002060009054906101000a900460ff16905092915050565b60007f01ffc9a7000000000000000000000000000000000000000000000000000000007bffffffffffffffffffffffffffffffffffffffffffffffffffffffff1916827bffffffffffffffffffffffffffffffffffffffffffffffffffffffff1916149050919050565b6111f781611990565b611236576040517f08c379a000000000000000000000000000000000000000000000000000000000815260040161122d90612a1b565b60405180910390fd5b50565b600033905090565b816004600083815260200190815260200160002060006101000a81548173ffffffffffffffffffffffffffffffffffffffff021916908373ffffffffffffffffffffffffffffffffffffffff160217905550808273ffffffffffffffffffffffffffffffffffffffff166112b483610a80565b73ffffffffffffffffffffffffffffffffffffffff167f8c5be1e5ebec7d5bd14f71427d1e84f3dd0314c0f7b2291e5b200ac8c7c3b92560405160405180910390a45050565b60008061130683610a80565b90508073ffffffffffffffffffffffffffffffffffffffff168473ffffffffffffffffffffffffffffffffffffffff161480611348575061134781856110f0565b5b8061138657508373ffffffffffffffffffffffffffffffffffffffff1661136e846106d5565b73ffffffffffffffffffffffffffffffffffffffff16145b91505092915050565b8273ffffffffffffffffffffffffffffffffffffffff166113af82610a80565b73ffffffffffffffffffffffffffffffffffffffff1614611405576040517f08c379a00000000000000000000000000000000000000000000000000000000081526004016113fc90612fd8565b60405180910390fd5b600073ffffffffffffffffffffffffffffffffffffffff168273ffffffffffffffffffffffffffffffffffffffff1603611474576040517f08c379a000000000000000000000000000000000000000000000000000000000815260040161146b9061306a565b60405180910390fd5b61148183838360016119d1565b8273ffffffffffffffffffffffffffffffffffffffff166114a182610a80565b73ffffffffffffffffffffffffffffffffffffffff16146114f7576040517f08c379a00000000000000000000000000000000000000000000000000000000081526004016114ee90612fd8565b60405180910390fd5b6004600082815260200190815260200160002060006101000a81549073ffffffffffffffffffffffffffffffffffffffff02191690556001600360008573ffffffffffffffffffffffffffffffffffffffff1673ffffffffffffffffffffffffffffffffffffffff168152602001908152602001600020600082825403925050819055506001600360008473ffffffffffffffffffffffffffffffffffffffff1673ffffffffffffffffffffffffffffffffffffffff16815260200190815260200160002060008282540192505081905550816002600083815260200190815260200160002060006101000a81548173ffffffffffffffffffffffffffffffffffffffff021916908373ffffffffffffffffffffffffffffffffffffffff160217905550808273ffffffffffffffffffffffffffffffffffffffff168473ffffffffffffffffffffffffffffffffffffffff167fddf252ad1be2c89b69c2b068fc378daa952ba7f163c4a11628f55a4df523b3ef60405160405180910390a461168383838360016119d7565b505050565b60006002600083815260200190815260200160002060009054906101000a900473ffffffffffffffffffffffffffffffffffffffff169050919050565b6116df8282604051806020016040528060008152506119dd565b5050565b8173ffffffffffffffffffffffffffffffffffffffff168373ffffffffffffffffffffffffffffffffffffffff1603611751576040517f08c379a0000000000000000000000000000000000000000000000000000000008152600401611748906130d6565b60405180910390fd5b80600560008573ffffffffffffffffffffffffffffffffffffffff1673ffffffffffffffffffffffffffffffffffffffff16815260200190815260200160002060008473ffffffffffffffffffffffffffffffffffffffff1673ffffffffffffffffffffffffffffffffffffffff16815260200190815260200160002060006101000a81548160ff0219169083151502179055508173ffffffffffffffffffffffffffffffffffffffff168373ffffffffffffffffffffffffffffffffffffffff167f17307eab39ab6107e8899845ad3d59bd9653f200f220920489ca2b5937696c31836040516118429190612027565b60405180910390a3505050565b61185a84848461138f565b61186684848484611a38565b6118a5576040517f08c379a000000000000000000000000000000000000000000000000000000000815260040161189c90613168565b60405180910390fd5b50505050565b606060405180602001604052806000815250905090565b6060600060016118d184611bbf565b01905060008167ffffffffffffffff8111156118f0576118ef6123de565b5b6040519080825280601f01601f1916602001820160405280156119225781602001600182028036833780820191505090505b509050600082602001820190505b600115611985578080600190039150507f3031323334353637383961626364656600000000000000000000000000000000600a86061a8153600a858161197957611978613188565b5b04945060008503611930575b819350505050919050565b60008073ffffffffffffffffffffffffffffffffffffffff166119b283611688565b73ffffffffffffffffffffffffffffffffffffffff1614159050919050565b50505050565b50505050565b6119e78383611d12565b6119f46000848484611a38565b611a33576040517f08c379a0000000000000000000000000000000000000000000000000000000008152600401611a2a90613168565b60405180910390fd5b505050565b6000611a598473ffffffffffffffffffffffffffffffffffffffff16611f2f565b15611bb2578373ffffffffffffffffffffffffffffffffffffffff1663150b7a02611a82611239565b8786866040518563ffffffff1660e01b8152600401611aa4949392919061320c565b6020604051808303816000875af1925050508015611ae057506040513d601f19601f82011682018060405250810190611add919061326d565b60015b611b62573d8060008114611b10576040519150601f19603f3d011682016040523d82523d6000602084013e611b15565b606091505b506000815103611b5a576040517f08c379a0000000000000000000000000000000000000000000000000000000008152600401611b5190613168565b60405180910390fd5b805181602001fd5b63150b7a0260e01b7bffffffffffffffffffffffffffffffffffffffffffffffffffffffff1916817bffffffffffffffffffffffffffffffffffffffffffffffffffffffff191614915050611bb7565b600190505b949350505050565b600080600090507a184f03e93ff9f4daa797ed6e38ed64bf6a1f0100000000000000008310611c1d577a184f03e93ff9f4daa797ed6e38ed64bf6a1f0100000000000000008381611c1357611c12613188565b5b0492506040810190505b6d04ee2d6d415b85acef81000000008310611c5a576d04ee2d6d415b85acef81000000008381611c5057611c4f613188565b5b0492506020810190505b662386f26fc100008310611c8957662386f26fc100008381611c7f57611c7e613188565b5b0492506010810190505b6305f5e1008310611cb2576305f5e1008381611ca857611ca7613188565b5b0492506008810190505b6127108310611cd7576127108381611ccd57611ccc613188565b5b0492506004810190505b60648310611cfa5760648381611cf057611cef613188565b5b0492506002810190505b600a8310611d09576001810190505b80915050919050565b600073ffffffffffffffffffffffffffffffffffffffff168273ffffffffffffffffffffffffffffffffffffffff1603611d81576040517f08c379a0000000000000000000000000000000000000000000000000000000008152600401611d78906132e6565b60405180910390fd5b611d8a81611990565b15611dca576040517f08c379a0000000000000000000000000000000000000000000000000000000008152600401611dc190613352565b60405180910390fd5b611dd86000838360016119d1565b611de181611990565b15611e21576040517f08c379a0000000000000000000000000000000000000000000000000000000008152600401611e1890613352565b60405180910390fd5b6001600360008473ffffffffffffffffffffffffffffffffffffffff1673ffffffffffffffffffffffffffffffffffffffff16815260200190815260200160002060008282540192505081905550816002600083815260200190815260200160002060006101000a81548173ffffffffffffffffffffffffffffffffffffffff021916908373ffffffffffffffffffffffffffffffffffffffff160217905550808273ffffffffffffffffffffffffffffffffffffffff16600073ffffffffffffffffffffffffffffffffffffffff167fddf252ad1be2c89b69c2b068fc378daa952ba7f163c4a11628f55a4df523b3ef60405160405180910390a4611f2b6000838360016119d7565b5050565b6000808273ffffffffffffffffffffffffffffffffffffffff163b119050919050565b60405180606001604052806060815260200160008152602001600081525090565b6000604051905090565b600080fd5b600080fd5b60007fffffffff0000000000000000000000000000000000000000000000000000000082169050919050565b611fbc81611f87565b8114611fc757600080fd5b50565b600081359050611fd981611fb3565b92915050565b600060208284031215611ff557611ff4611f7d565b5b600061200384828501611fca565b91505092915050565b60008115159050919050565b6120218161200c565b82525050565b600060208201905061203c6000830184612018565b92915050565b600081519050919050565b600082825260208201905092915050565b60005b8381101561207c578082015181840152602081019050612061565b60008484015250505050565b6000601f19601f8301169050919050565b60006120a482612042565b6120ae818561204d565b93506120be81856020860161205e565b6120c781612088565b840191505092915050565b600060208201905081810360008301526120ec8184612099565b905092915050565b6000819050919050565b612107816120f4565b811461211257600080fd5b50565b600081359050612124816120fe565b92915050565b6000602082840312156121405761213f611f7d565b5b600061214e84828501612115565b91505092915050565b600073ffffffffffffffffffffffffffffffffffffffff82169050919050565b600061218282612157565b9050919050565b61219281612177565b82525050565b60006020820190506121ad6000830184612189565b92915050565b6121bc81612177565b81146121c757600080fd5b50565b6000813590506121d9816121b3565b92915050565b600080604083850312156121f6576121f5611f7d565b5b6000612204858286016121ca565b925050602061221585828601612115565b9150509250929050565b600082825260208201905092915050565b600061223b82612042565b612245818561221f565b935061225581856020860161205e565b61225e81612088565b840191505092915050565b612272816120f4565b82525050565b600060608301600083015184820360008601526122958282612230565b91505060208301516122aa6020860182612269565b5060408301516122bd6040860182612269565b508091505092915050565b600060208201905081810360008301526122e28184612278565b905092915050565b6122f3816120f4565b82525050565b600060208201905061230e60008301846122ea565b92915050565b60008060006060848603121561232d5761232c611f7d565b5b600061233b868287016121ca565b935050602061234c868287016121ca565b925050604061235d86828701612115565b9150509250925092565b6000806040838503121561237e5761237d611f7d565b5b600061238c85828601612115565b925050602061239d858286016121ca565b9150509250929050565b6000602082840312156123bd576123bc611f7d565b5b60006123cb848285016121ca565b91505092915050565b600080fd5b600080fd5b7f4e487b7100000000000000000000000000000000000000000000000000000000600052604160045260246000fd5b61241682612088565b810181811067ffffffffffffffff82111715612435576124346123de565b5b80604052505050565b6000612448611f73565b9050612454828261240d565b919050565b600067ffffffffffffffff821115612474576124736123de565b5b61247d82612088565b9050602081019050919050565b82818337600083830152505050565b60006124ac6124a784612459565b61243e565b9050828152602081018484840111156124c8576124c76123d9565b5b6124d384828561248a565b509392505050565b600082601f8301126124f0576124ef6123d4565b5b8135612500848260208601612499565b91505092915050565b600080604083850312156125205761251f611f7d565b5b600083013567ffffffffffffffff81111561253e5761253d611f82565b5b61254a858286016124db565b925050602061255b85828601612115565b9150509250929050565b61256e8161200c565b811461257957600080fd5b50565b60008135905061258b81612565565b92915050565b600080604083850312156125a8576125a7611f7d565b5b60006125b6858286016121ca565b92505060206125c78582860161257c565b9150509250929050565b600067ffffffffffffffff8211156125ec576125eb6123de565b5b6125f582612088565b9050602081019050919050565b6000612615612610846125d1565b61243e565b905082815260208101848484011115612631576126306123d9565b5b61263c84828561248a565b509392505050565b600082601f830112612659576126586123d4565b5b8135612669848260208601612602565b91505092915050565b6000806000806080858703121561268c5761268b611f7d565b5b600061269a878288016121ca565b94505060206126ab878288016121ca565b93505060406126bc87828801612115565b925050606085013567ffffffffffffffff8111156126dd576126dc611f82565b5b6126e987828801612644565b91505092959194509250565b6000606082019050818103600083015261270f8186612099565b905061271e60208301856122ea565b61272b60408301846122ea565b949350505050565b6000806040838503121561274a57612749611f7d565b5b6000612758858286016121ca565b9250506020612769858286016121ca565b9150509250929050565b7f4e487b7100000000000000000000000000000000000000000000000000000000600052602260045260246000fd5b600060028204905060018216806127ba57607f821691505b6020821081036127cd576127cc612773565b5b50919050565b7f4552433732313a20617070726f76616c20746f2063757272656e74206f776e6560008201527f7200000000000000000000000000000000000000000000000000000000000000602082015250565b600061282f60218361204d565b915061283a826127d3565b604082019050919050565b6000602082019050818103600083015261285e81612822565b9050919050565b7f4552433732313a20617070726f76652063616c6c6572206973206e6f7420746f60008201527f6b656e206f776e6572206f7220617070726f76656420666f7220616c6c000000602082015250565b60006128c1603d8361204d565b91506128cc82612865565b604082019050919050565b600060208201905081810360008301526128f0816128b4565b9050919050565b7f4552433732313a2063616c6c6572206973206e6f7420746f6b656e206f776e6560008201527f72206f7220617070726f76656400000000000000000000000000000000000000602082015250565b6000612953602d8361204d565b915061295e826128f7565b604082019050919050565b6000602082019050818103600083015261298281612946565b9050919050565b600081905092915050565b50565b60006129a4600083612989565b91506129af82612994565b600082019050919050565b60006129c582612997565b9150819050919050565b7f4552433732313a20696e76616c696420746f6b656e2049440000000000000000600082015250565b6000612a0560188361204d565b9150612a10826129cf565b602082019050919050565b60006020820190508181036000830152612a34816129f8565b9050919050565b7f4552433732313a2061646472657373207a65726f206973206e6f74206120766160008201527f6c6964206f776e65720000000000000000000000000000000000000000000000602082015250565b6000612a9760298361204d565b9150612aa282612a3b565b604082019050919050565b60006020820190508181036000830152612ac681612a8a565b9050919050565b7f4368616e6e656c2049442063616e6e6f74206265207a65726f00000000000000600082015250565b6000612b0360198361204d565b9150612b0e82612acd565b602082019050919050565b60006020820190508181036000830152612b3281612af6565b9050919050565b7f4368616e6e656c20494420646f6573206e6f7420657869737400000000000000600082015250565b6000612b6f60198361204d565b9150612b7a82612b39565b602082019050919050565b60006020820190508181036000830152612b9e81612b62565b9050919050565b7f4e6f7420656e6f7567682065746865722073656e740000000000000000000000600082015250565b6000612bdb60158361204d565b9150612be682612ba5565b602082019050919050565b60006020820190508181036000830152612c0a81612bce565b9050919050565b7f4e487b7100000000000000000000000000000000000000000000000000000000600052601160045260246000fd5b6000612c4b826120f4565b91507fffffffffffffffffffffffffffffffffffffffffffffffffffffffffffffffff8203612c7d57612c7c612c11565b5b600182019050919050565b60008190508160005260206000209050919050565b60006020601f8301049050919050565b600082821b905092915050565b600060088302612cea7fffffffffffffffffffffffffffffffffffffffffffffffffffffffffffffffff82612cad565b612cf48683612cad565b95508019841693508086168417925050509392505050565b6000819050919050565b6000612d31612d2c612d27846120f4565b612d0c565b6120f4565b9050919050565b6000819050919050565b612d4b83612d16565b612d5f612d5782612d38565b848454612cba565b825550505050565b600090565b612d74612d67565b612d7f818484612d42565b505050565b5b81811015612da357612d98600082612d6c565b600181019050612d85565b5050565b601f821115612de857612db981612c88565b612dc284612c9d565b81016020851015612dd1578190505b612de5612ddd85612c9d565b830182612d84565b50505b505050565b600082821c905092915050565b6000612e0b60001984600802612ded565b1980831691505092915050565b6000612e248383612dfa565b9150826002028217905092915050565b612e3d82612042565b67ffffffffffffffff811115612e5657612e556123de565b5b612e6082546127a2565b612e6b828285612da7565b600060209050601f831160018114612e9e5760008415612e8c578287015190505b612e968582612e18565b865550612efe565b601f198416612eac86612c88565b60005b82811015612ed457848901518255600182019150602085019450602081019050612eaf565b86831015612ef15784890151612eed601f891682612dfa565b8355505b6001600288020188555050505b505050505050565b600081905092915050565b6000612f1c82612042565b612f268185612f06565b9350612f3681856020860161205e565b80840191505092915050565b6000612f4e8285612f11565b9150612f5a8284612f11565b91508190509392505050565b7f4552433732313a207472616e736665722066726f6d20696e636f72726563742060008201527f6f776e6572000000000000000000000000000000000000000000000000000000602082015250565b6000612fc260258361204d565b9150612fcd82612f66565b604082019050919050565b60006020820190508181036000830152612ff181612fb5565b9050919050565b7f4552433732313a207472616e7366657220746f20746865207a65726f2061646460008201527f7265737300000000000000000000000000000000000000000000000000000000602082015250565b600061305460248361204d565b915061305f82612ff8565b604082019050919050565b6000602082019050818103600083015261308381613047565b9050919050565b7f4552433732313a20617070726f766520746f2063616c6c657200000000000000600082015250565b60006130c060198361204d565b91506130cb8261308a565b602082019050919050565b600060208201905081810360008301526130ef816130b3565b9050919050565b7f4552433732313a207472616e7366657220746f206e6f6e20455243373231526560008201527f63656976657220696d706c656d656e7465720000000000000000000000000000602082015250565b600061315260328361204d565b915061315d826130f6565b604082019050919050565b6000602082019050818103600083015261318181613145565b9050919050565b7f4e487b7100000000000000000000000000000000000000000000000000000000600052601260045260246000fd5b600081519050919050565b600082825260208201905092915050565b60006131de826131b7565b6131e881856131c2565b93506131f881856020860161205e565b61320181612088565b840191505092915050565b60006080820190506132216000830187612189565b61322e6020830186612189565b61323b60408301856122ea565b818103606083015261324d81846131d3565b905095945050505050565b60008151905061326781611fb3565b92915050565b60006020828403121561328357613282611f7d565b5b600061329184828501613258565b91505092915050565b7f4552433732313a206d696e7420746f20746865207a65726f2061646472657373600082015250565b60006132d060208361204d565b91506132db8261329a565b602082019050919050565b600060208201905081810360008301526132ff816132c3565b9050919050565b7f4552433732313a20746f6b656e20616c7265616479206d696e74656400000000600082015250565b600061333c601c8361204d565b915061334782613306565b602082019050919050565b6000602082019050818103600083015261336b8161332f565b905091905056fea26469706673582212209487ce5a1eebcdae341f75a9f65d5d05bda639f88afbefa299cc62183d85292864736f6c63430008110033",
  "linkReferences": {},
  "deployedLinkReferences": {}
}